:020000040800F2
:1000000048B800205D02000803220008BD1E000859
:10001000012200085F0400085928000800000000C1
:100020000000000000000000000000009D0100082A
:100030000D05000800000000F9010008492400082F
:1000400077020008770200087702000877020008AC
:10005000770200087702000877020008770200089C
:10006000770200087702000877020008770200088C
:1000700061040008770200086D0400087702000898
:10008000770200087702000877020008770200086C
:10009000770200087702000877020008770200085C
:1000A000770200087702000877020008770200084C
:1000B000770200087702000877020008770200083C
:1000C000770200087702000877020008770200082C
:1000D0007702000841280008770200084D28000830
:1000E000770200087702000877020008770200080C
:1000F00077020008770200087702000877020008FC
:1001000077020008770200087702000877020008EB
:1001100077020008770200081D2500087702000812
:1001200077020008770200087904000877020008C7
:1001300077020008610500087702000877020008CE
:1001400077020008770200087702000877020008AB
:10015000770200087702000885040008770200088B
:10016000770200087702000877020008770200088B
:1001700077020008770200087702000800000000FC
:100180007702000877020008DFF80CD000F02AF9A7
:1001900000480047F36E000848B800202C4B19684F
:1001A0000868B0E8F04F80F30988BFF36F8F4FF015
:1001B000000080F3118870470000000008480068C4
:1001C000006880F308884FF0000080F3148862B65E
:1001D00061B6BFF34F8FBFF36F8F00DF00BF00BF6B
:1001E00008ED00E0DFF80C00016841F470010160E7
:1001F000704700BF88ED00E0EFF30980BFF36F8F19
:10020000134B1A681EF0100F08BF20ED108A20E96A
:10021000F04F106009B44FF0500080F31188BFF325
:100220004F8FBFF36F8F0DF067F94FF0000080F331
:10023000118809BC19680868B0E8F04F1EF0100F6B
:1002400008BFB0EC108A80F30988BFF36F8F704746
:100250002C000020EFF3058070470000064880471F
:1002600006480047FEE7FEE7FEE7FEE7FEE7FEE79B
:10027000FEE7FEE7FEE7FEE701250008890100082A
:100280002DE9F05F0546002092469B4688460646CB
:10029000814640241BE0284641464746224600F05E
:1002A00090F853465A46C01A914110D31146184649
:1002B000224600F077F82D1A67EB01084F462246D8
:1002C0000120002100F06EF817EB00094E41201EBE
:1002D000A4F10104DFDC484631462A464346BDE826
:1002E000F09F00000649074A0868504343F239026C
:1002F00010440860400870470149086070470000DA
:10030000E00100206D4EC64140EA01039B0703D087
:1003100009E008C9121F08C0042AFAD203E011F844
:10032000013B00F8013B521EF9D27047D2B201E006
:1003300000F8012B491EFBD270470022F6E710B5EA
:1003400013460A4604461946FFF7F0FF204610BD43
:10035000421C10F8011B0029FBD1801A704730B5F0
:1003600004460020034600E05B1C934203D2E05C9D
:10037000CD5C401BF8D030BD30B50B4601460020A7
:100380002022012409E021FA02F59D4205D303FA57
:1003900002F5491B04FA02F52844151EA2F10102D8
:1003A000F1DC30BD202A04DB203A00FA02F1002003
:1003B00070479140C2F1200320FA03F319439040A3
:1003C0007047202A04DB203A21FA02F0002170470E
:1003D00021FA02F3D040C2F12002914008431946AD
:1003E00070470000064C074D06E0E06840F001034E
:1003F00094E8070098471034AC42F6D3FFF7C8FEE4
:1004000014E5000834E5000870B58C1810F8015B9D
:1004100015F0070301D110F8013B2A1106D110F89D
:10042000012B03E010F8016B01F8016B5B1EF9D1A1
:100430002B0705D40023521E0DD401F8013BFAE727
:1004400010F8013BCB1A921C03E013F8015B01F892
:10045000015B521EF9D5A142D8D3002070BDFEE742
:10046000014800F059B9000044340020014800F070
:1004700053B90000A4340020014800F04DB9000039
:1004800084330020014800F047B90000E433002025
:1004900001681823CAB2103AB2FBF3F2054B6FF3AE
:1004A0000901032A9B5CC36500D9091D81650846C3
:1004B000704700009CE1000810B5014600208B69E0
:1004C0008A6A4FF0C07453B1B3F5005F15D072B1B2
:1004D000012A0CD0022A0AD0032A09D104E01AB159
:1004E000012A06D0022A03D1C96AC90100D5012018
:1004F00010BDC96AA142FAD010BD002AF7D0012A66
:10050000F2D0022AF3D0032AF3D010BD70470000C6
:10051000064908B509684FF4FA52B1FBF2F14143BC
:10052000009100BF491E0091FBD208BD28000020A9
:1005300038B50446006800F58050816941F48011A7
:100540008161206800F58050806900900120FFF7EC
:10055000DFFF2068009900F58050816138BD000000
:1005600010B55020EFF3118480F31188BFF34F8F43
:10057000BFF36F8F024800F0D5FA84F3118810BDE5
:10058000BC3200202DE9F041044621B14FF4006057
:10059000E060C000A060E0690026002861D0354618
:1005A0002068402702683A490A40D4E902131943F7
:1005B000294341F40071114301602068056801205E
:1005C00000F0E4F92068056020684760206845680D
:1005D000012000F0DBF92068456020688660206813
:1005E000C660206881694FF64172114041F0800178
:1005F000816120688569012000F0C8F92068856163
:100600002068C6612068C569012000F0BFF9206834
:10061000C561206800F5805081691E4A11401E4A5C
:100620000A438261206800F580508569012000F04E
:10063000ADF9206800F5805085612068174900F504
:1006400080500160206800F580500568012000F0AE
:100650009DF9206800F580500560A069012803D04D
:1006600009E04FF480659BE7206800F58050C16980
:100670000B4A1143C16160690A4A8188116401789B
:10068000D0F8010041EA00205064BDE8F08100008C
:100690000F8120FF233FDEF8040020028020C102EA
:1006A0004000010000800240704710B5040002D0F5
:1006B000607910B106E0012010BD002020712046B5
:1006C00000F004F801206071002010BD08B500683A
:1006D0000649884208D10648016841F4805101600A
:1006E000006800F48050009008BD00000030024017
:1006F0003038024090F83510022903D0802141653E
:1007000001207047052180F835100068016821F04C
:1007100001010160002070472DE9F84304464FF0C5
:100720000009CDF8009063484FF41651A56D00689C
:10073000B0FBF1F72E6894F85C20082101FA02F072
:1007400030420FD02068026852070BD5026822F0B1
:100750000402026094F85C008140A960606D40F082
:100760000100606594F85C104FF0010808FA01F090
:10077000304208D021684969090604D5A860606D37
:1007800040F00200606594F85C100420884030421C
:1007900008D021680968890704D5A860606D40F019
:1007A0000400606594F85C1010208840304218D036
:1007B00021680968090714D5A86020680168490301
:1007C00004D50068000308D5A16C07E00168C905DD
:1007D00003D4016821F008010160216C09B12046B1
:1007E000884794F85C1020208840304231D021683E
:1007F0000968C9062DD5A86094F835000528206839
:10080000016806D0490347D5006800031DD4616C18
:100810001CE021F0160101602068416921F080018F
:100820004161206C08B9A06C20B12068016821F0FA
:100830000801016094F85C103F208840A86084F8AB
:10084000349084F83580216D1FE0E16B09B12046BA
:100850008847606D00282BD0606DC00714D005203C
:1008600084F835002068016821F0010101600098DA
:10087000401C0090B84203D820680068C007F6D139
:1008800084F8349084F83580E16C002910D001B0F0
:100890002046BDE8F04308470168C905D5D4016882
:1008A00021F01001016084F8349084F83580CCE7A1
:1008B000BDE8F883280000202DE9F041044600F04F
:1008C000FBFC05465CB1002684F83460022084F805
:1008D00035002068016821F0010101600DE0012070
:1008E000BDE8F08100F0E8FC401B052805D9202078
:1008F0006065032084F83500F2E720680068C007CF
:10090000F0D121680A6820480240D4E90103184365
:10091000D4E903352B43184363691843A36918438B
:10092000E3691843236A18431043626A042A03D117
:10093000D4E90B231A431043086020684069656AB4
:1009400020F0070128460D43012704280CD1A06A96
:100950000543E06A40B12046FFF7AEFD20B14020DC
:10096000606584F83570BAE7206845612046FFF776
:100970008FFD94F85C203F2191408160666584F88A
:1009800035700020ACE700003F8010F070B50446E1
:1009900000F092FC0546601C02D004480078044434
:1009A00000F08AFC401BA042FAD370BD1C0000205E
:1009B0002DE9F04390F845500024012D0DD04FF063
:1009C000010980F84590022580F8445044F2F45C17
:1009D0004FF000485F1E816216E00220BDE8F08300
:1009E00001EB4415C5F80080C4EBC41606EB4606BF
:1009F00002EB8606C5E901C6BC4203D205F120061A
:100A0000EE6000E0E960641C9C42E9D3026802F5F4
:100A10008052D16080F84490002180F8451008464B
:100A2000DCE72DE9F04390F845400025012C0BD080
:100A30004FF0010C80F845C0022480F844404FF488
:100A400080195F1EC1621BE00220BDE8F08301EB4C
:100A50004514C4F80090C5EBC51606EB460602EB3C
:100A60008606A660C6691EB9266846F4400626605A
:100A7000BD4203D204F12006E66000E0E1606D1C97
:100A80009D42E4D3026802F58052116180F844C0AF
:100A9000002180F845100846D7E7704730B590F838
:100AA00045100022012908D0012380F84530022199
:100AB00080F844100024816A1AE0022030BD0D68DD
:100AC000521CC5F30125022D0AD00D6815F4407F94
:100AD00009D04163826B521C8263012A12D012E05A
:100AE0008363016302E0856B6D1C8563C968816265
:100AF0000D68002D01DB042AE1D300F8443F447067
:100B0000012030BD01630A68C2F30D42121FC263A7
:100B1000026B92680264C96840F8281F0377447723
:100B2000002030BD70B50446006800F58050416972
:100B30004FF0000649064FF0010508D5204600F0A9
:100B4000D3F92068402100F58050416109E04069F7
:100B5000C0070AD0204600F093FA206800F58050C4
:100B6000456184F8445084F8456020684FF4803132
:100B700000F580504161206800F580504069000414
:100B80000CD52046FFF789FF20684FF4004100F59F
:100B90008050416184F8445084F8456070BD000085
:100BA0002DE9FC474FF000060400B146009603D043
:100BB00094F8440018B107E00120BDE8FC8784F8F0
:100BC0004560204600F0E0F86548016841F4804146
:100BD0000160006800F4804001906248016821F4DF
:100BE000000101600168226A11430160206800F57C
:100BF0008050016841F00101016000F05DFB054695
:100C00004FF4FA7708E000F057FB401BB84203D9D5
:100C1000032004F8440F67E0206800F58050006866
:100C2000C007F0D12068006920F01C0500F0BCFC72
:100C30004D494E4A0144914202D245F0080516E062
:100C40004B494C4A0144914202D245F00C050EE05A
:100C500049494A4A0144914209D34949084449490A
:100C6000884202D245F0040501E045F010052068F5
:100C700005614FF400420021204600F002FA0125F0
:100C8000A8BBFF20FFF782FE606888B300F014FB6A
:100C9000804641F288376A460121204600F0E2F89A
:100CA00000F00AFBA0EB0800B84217D800984007F4
:100CB000F1D54FF480520021204600F0E2F9B0B99E
:100CC00000F0FAFA80466A460121204600F0CAF890
:100CD00000F0F2FAA0EB0800B8420AD90121204640
:100CE000FFF750FC04F8445F0320667065E724E0DA
:100CF00018E000988006E6D56A461F21204600F0DD
:100D0000B1F8D0B90098C10603D54FF40061E16095
:100D100000E0E660400701D5A66019E04FF480408E
:100D2000A06015E0E068A168C00840EA510082B206
:100D30000021204600F0A5F930B101212046FFF73F
:100D400021FC84F8445037E740F6FF70FFF71EFEA1
:100D500049462046FFF716FC84F8445000202CE753
:100D6000443802400438014000D3CEFEC0E1E40024
:100D700040F1E9FD40787D0100796CFC005A620287
:100D8000001F0AFA80F0FA02F0B50068304987B017
:100D900088425BD12F480024016841F00071016056
:100DA000016801F000710591016841F08061016006
:100DB000016801F080610591016841F00061016006
:100DC000016801F000610591016841F004010160D2
:100DD000016801F004010591016841F00101016021
:100DE000016801F001010591016841F00201016013
:100DF0000068022500F0020005903220CDE90005D0
:100E000002AA03260B2782E8D0006946124800F0A8
:100E100073F98620CDE9000502AA694682E8D00070
:100E20000E4800F069F94FF47050CDE9000502AAB0
:100E3000694682E8D0000A4800F05EF900220521E8
:100E40003D2000F0C5FA3D2000F0B4FA07B0F0BD37
:100E5000008002403038024000080240000002409A
:100E6000000402402DE9F047044690F84400914602
:100E700082281DD0822084F84400206802694FF641
:100E8000FF7502F01C03228A05EAC2221A434FF4BE
:100E9000F86303EA8111114321F0020141F00105D9
:100EA000056100F009FA064601274FF480380FE08B
:100EB0000220BDE8F08700F0FFF9801B404505D314
:100EC00004F8447F002060700320F2E72068056981
:100ED000E807F0D12068406981B2C9F8001084F8B1
:100EE00044700020E5E700000148006806F0A6BD58
:100EF00018000020F8B5044690F84500012839D0C4
:100F0000012584F84550022084F84400206800261A
:100F1000016841F0080101602068006800902846DF
:100F2000FFF7F6FA2168009808602068016841F030
:100F3000040101602068006800900120FFF7E8FAD2
:100F40002168009808602046FFF7F2FA206800F553
:100F50008050816941F400518161206800F5805022
:100F6000816941F00201816184F8445084F8456050
:100F70000020F8BD0220F8BDF0B590F84530002201
:100F8000012B11D0012780F84570022380F84430EE
:100F9000002559B1C46A2368002B0ADA122100F82F
:100FA000441F45700120F0BD0220F0BD00F8447FD1
:100FB000F7E740F2F456B1420BD9B1FBF6FCB1FBB6
:100FC000F6F306FB1C1CBCF1000F00D05B1C012BD0
:100FD00043D1226842F040522260C26AC1F30C0140
:100FE0005160C16A0A6842F000420A60C16AC96879
:100FF000C16234E0D4F800C02CF0405CC4F800C0FA
:1010000032B9C46AD4F800C04CF0805CC4F800C0A7
:10101000C46A66605C1EA24214D1C46AD4F800C0DF
:101020004CF0005CC4F800C0C3F10104C4EBC4146C
:1010300004EB4404D0F82CC001EB8404C4F30C048A
:10104000CCF80440C46AD4F800C04CF0004CC4F89A
:1010500000C0C46A521CE468C4629A42CAD30168E0
:1010600001F580514A69520705D504224A61016899
:1010700001F580514D6000F8447F45700020F0BDBF
:1010800070472DE9F041044690F8440042281ED0F4
:10109000422084F84400206803694FF6FF7603F08D
:1010A0001C05238A06EAC3232B434FF4F86505EA9F
:1010B0008111194341F0030591B241612068056136
:1010C00000F0FAF8064601274FF480380FE00220BE
:1010D000BDE8F08100F0F0F8801B404505D304F82E
:1010E000447F002060700320F2E720680569E8076C
:1010F000F0D184F84470EBE72DE9F84FDFF880B1C8
:1011000000224FF003094FF00F0A0BF1040E0125E6
:101110000B6895402B40AB4272D14C68012C05D036
:10112000022C03D0112C01D0122C10D1866854004F
:1011300009FA04F7BE43CF68A74037438760466883
:101140000C79AE43C4F30014944034434460C46843
:10115000570009FA07F58E68AC43BE402643C660C7
:101160004C68022C01D0122C12D1D40800EB840C54
:10117000DCF820605407E40E0AFA04F826EA0806B0
:10118000D1F8108008FA04F848EA0608CCF8208064
:101190000468AC430D7905F00305BD4025430560A7
:1011A0004C68E40065D5374C256845F480452560DA
:1011B000246822F0030504F480440094324C2E1974
:1011C000D6F808789407250F0AFA05F4A7432F4CA0
:1011D000A04201D1002424E02D4CA04201D10124E1
:1011E0001FE02C4CA04201D102241AE02A4CA0425C
:1011F00001D1032415E0294CA04202D1042410E0BF
:1012000037E0274CA04201D105240AE0254CA0423A
:1012100001D1062405E0244CA04201D1072400E0BE
:101220000824AC403C43C6F80848DBF800405D4663
:101230004E689C43F60300D51C432C60DEF800404A
:1012400075464E689C43B60300D51C432C600C4D7C
:1012500008352C684E689C43F60200D51C432C6070
:10126000074D0C352C684E689C43B60200D51C43D4
:101270002C60521C102AFFF44AAFBDE8F88F000022
:10128000003C014044380240003001400000024070
:101290000004024000080240000C0240001002401E
:1012A0000014024000180240001C02400AB1816193
:1012B00070470904FBE700000148806870470000A0
:1012C0001C00002002488168027811448160704748
:1012D0001C0000200B4810B5016841F4007101604A
:1012E000016841F480610160016841F4807101602E
:1012F000032000F08DF8002000F006F800F03EF822
:10130000002010BD003C024010B5014688B000220C
:10131000362000F05DF8362000F04CF81348002429
:10132000016841F010010160006805A900F010009B
:101330000690684600F018F900F03CF90C494000AE
:10134000B0FBF1F10C480B4A491E026040F2E73253
:10135000C0E90324C0E9011400F026FB10B101200C
:1013600008B010BD044800F03BFBF9E740380240EC
:1013700040420F0000100040043500200C4882B0AD
:10138000016841F480410160006800F480400090F1
:101390000748001F016841F0805101600068002289
:1013A00000F0805000900F21901E02B000F010B8A5
:1013B00044380240002809DB00F01F02012191405F
:1013C0004009800000F1E020C0F8001170470000E3
:1013D000F0B40E4B1B68C3F30223C3F10704042CC3
:1013E00000D904241D1D072D01D2002300E0DB1EBF
:1013F000012606FA04F56D1E0D409D409E40761EA6
:10140000164045EA0601F0BC01F024BB0CED00E0FB
:10141000064A00F0070110684FF6FF03184040EA43
:101420000120034908431060704700000CED00E004
:101430000000FA052DE9F0470D46040065D0DFF8FD
:101440001491D9F80000EFB200F00F00A84207D2C3
:1014500089F80070D9F8000000F00F00A84254D1BC
:1014600020683D4E810712D5400703D5306840F40F
:10147000E05030602078000703D5306840F46040C9
:1014800030603068A16820F0F000084330602078B8
:10149000C0072DD0304960680839012812D00228D1
:1014A00013D0032811D00968890700292DDA316883
:1014B00021F0030101433160FFF7FEFE804641F257
:1014C000883A0EE009688903EFE709688901ECE7CB
:1014D000FFF7F2FEA0EB0801514502D90320BDE859
:1014E000F0873068616800F00C00B0EB810FEFD13D
:1014F000D9F80010484601F00F01A94207D907703A
:10150000006800F00F00A84201D00120E7E7207832
:10151000400705D53068E16820F4E05008433060AA
:101520002078000706D53068216920F4604040EA41
:10153000C100306000F05EF83168084AC1F3031161
:10154000515CC8400649086006480068FFF7DCFEA9
:101550000020C4E7003C024008380240A4E1000833
:1015600028000020200000200F2202600C4A13688F
:1015700003F003034360136803F0F0038360136810
:1015800003F4E053C36012684FF4E05303EAD2025D
:1015900002610448006800F00F0008607047000016
:1015A00008380240003C02400148006870470000D3
:1015B000280000200448054900680968044AC1F36E
:1015C0008221515CC8407047280000200838024042
:1015D000B4E100080448054900680968044AC1F3F9
:1015E0004231515CC8407047280000200838024052
:1015F000B4E10008154810B5006810F00C0114485B
:1016000013D0144B04290FD008290ED10F4C241FDE
:10161000216801F03F022168490207D52068C0F324
:101620008810A0FB030106E0184610BD2168C1F335
:101630008811A1FB00010023FEF722FE2168C1F3FF
:101640000141491C4900B0FBF1F010BD08380240CF
:101650000024F40040787D012DE9F84F040075D096
:101660002078DFF828B3CA4DC00748D0DBF8001057
:101670005846C1F38101012908D00068C0F38100F8
:1016800002280AD1281D0068400206D52868800378
:1016900035D560680028E2D031E06068B0F5803F61
:1016A00010D0B0F5A02F286810D020F4803028602A
:1016B000286820F4802028606068A0B1FFF7FCFD56
:1016C00006460CE0286840F48030F4E740F48020BF
:1016D0002860F7E7FFF7F0FD801B642872D82868C0
:1016E0008003F7D50BE0FFF7E7FD064604E0FFF7C0
:1016F000E3FD801B6428F1D828688003F7D42078A4
:10170000DFF8909280074FF0000A3ED5DBF800101A
:10171000584611F00C0F09D00068C0F38100022870
:101720000BD19A48001F0068400206D42868800741
:1017300015D5E068012809D111E0E068B8B10120B1
:10174000C9F80000FFF7B8FD064605E01AE1FFF70B
:10175000B3FD801B0228C1D828688007F7D5286808
:10176000216920F0F80040EAC10028600DE0C9F8C6
:1017700000A0FFF7A1FD064604E0FFF79DFD801BDA
:1017800002281FD828688007F7D42078000722D5C0
:101790007E4F814861696C3771B101210160FFF7AB
:1017A0008BFD064604E0FFF787FD801B022809D861
:1017B00038688007F7D50EE0C0F800A0FFF77CFD81
:1017C000064605E082E0FFF777FD801B02287DD802
:1017D00038688007F7D42078400765D56B484FF00C
:1017E000000838300068C0000BD468483830016801
:1017F00041F08051016000684FF0010800F0805016
:101800000090664F3868C0050FD4386840F4807087
:101810003860FFF751FD064604E0FFF74DFD801BE1
:10182000022853D83868C005F7D5584FA0686837E4
:1018300001280FD00528386810D020F0010038604A
:10184000386820F004003860A068B0B1FFF734FDBC
:1018500006460EE0386840F00100F4E740F004006E
:101860003860F7E7FFF728FD811B41F2883081429D
:1018700064D838688007F5D50DE0FFF71DFD0646F2
:1018800006E0FFF719FD811B41F28830814255D8EF
:1018900038688007F5D4B8F1000F05D03B483830E0
:1018A000016821F080510160A069C0B3DBF800201D
:1018B0005946C2F38102022A47D00228504606D078
:1018C000C9F86000FFF7F8FC04463AE036E04F46FE
:1018D000C9F86000FFF7F0FC064604E0FFF7ECFCF7
:1018E000801B02282AD828688001F7D4D4E9070190
:1018F0000843A16A2A4A490802EB0141626A41EAA7
:101900008211084394F82C1040EA01611F48001F1F
:10191000016001203866FFF7CFFC044605E033E0A4
:10192000FFF7CAFC001B022808D828688001F7D5F9
:101930002AE0FFF7C1FC001B022802D90320BDE802
:10194000F88F28688001F4D41EE00128F7D00868D9
:10195000E26900F48001914214D1226A00F03F0153
:1019600091420FD147F6C071626A0140914209D19C
:10197000A26A00F44031914204D1E16A00F0706043
:10198000884201D00120DAE70020D8E70838024079
:101990000038024000004742800E4742007000407D
:1019A0000000FFFF7047704710B5040003D094F8A3
:1019B0003D0010B107E0012010BD002084F83C007C
:1019C000204600F00CF8022084F83D00211D20681C
:1019D00000F0AAFD012084F83D00002010BD7047F2
:1019E0000168CA6842F00102CA600068816801F0BB
:1019F0000701062903D0016841F0010101600020C0
:101A00007047704770B50446006801694FF00005E3
:101A1000C943890715D4C168C943890711D4E91E90
:101A2000016101202077206880698007204602D06C
:101A3000FFF7E7FF04E000F098F8204600F096F882
:101A4000257720680169C943490717D4C168C9438C
:101A5000490713D46FF00401016102202077206848
:101A6000806910F4407F204602D0FFF7CAFF04E0EF
:101A700000F07BF8204600F079F8257720680169AE
:101A8000C943090716D4C168C943090712D46FF0C6
:101A900008010161042020772068C0698007204682
:101AA00002D0FFF7AEFF04E000F05FF8204600F040
:101AB0005DF8257720680169C943C90617D4C16854
:101AC000C943C90613D46FF01001016108202077C3
:101AD0002068C06910F4407F204602D0FFF791FFD4
:101AE00004E000F042F8204600F040F82577206836
:101AF0000169C943C90708D1C168C943C90704D1ED
:101B0000891E0161204600F033F820680169C9434D
:101B1000090609D4C168C943090605D46FF08001DC
:101B200001612046FFF73EFF20680169C94349066D
:101B300009D4C168C943490605D46FF04001016169
:101B4000204600F01FF820680169C94389060BD4BC
:101B5000C168C943890607D46FF02001016120469E
:101B6000BDE87040FFF71FBF70BD704770470000B1
:101B700000680349884201D1FFF7A4BB7047000009
:101B8000001000407047704770B502680446106846
:101B9000D168536910F00F0F52D003F0010501F422
:101BA00090762E435FD0C20705D0CA0503D5E26BFD
:101BB00042F00102E263420705D5DA0703D0E26B87
:101BC00042F00202E263820705D5DA0703D0E26B36
:101BD00042F00402E263020707D501F020022A4323
:101BE00003D0E26B42F00802E263E26B002A33D0DA
:101BF000800604D5880602D5204600F00FFD206837
:101C00004069E16BC0F38010090700D428B3204677
:101C100000F0F6FC2068416949061AD5416921F0B7
:101C200040014161606BA0B11B490165606BFEF72B
:101C300061FD002810D0606B016DBDE87040084761
:101C4000830610D58B060ED52046BDE8704000F007
:101C5000E5BC2046FFF797FF70BD2046FFF793FFD6
:101C60000020E06370BD030606D50B0604D52046B0
:101C7000BDE8704000F0B2BD4006F3D54806F1D58E
:101C8000D168204621F04001D160202184F839102C
:101C900000F013F970BD0000F125000870B50400D4
:101CA00004D094F83900002510B106E0012070BD81
:101CB00084F83850204600F023F8242084F83900B6
:101CC0002068C16821F40051C160204600F0F2FC98
:101CD0002068016921F4904101612068416921F087
:101CE0002A0141612068C16841F40051C160E56387
:101CF000202084F8390084F83A00002070BD0000EC
:101D00002DE9F04F87B0044614216846FEF715FB15
:101D1000DFF880810221D4F800C05F48012203234C
:101D2000072600258F064FF0400B4FF480694FF4D3
:101D3000003AC44552D1DFF860C10CF1140CDCF854
:101D4000008048F01008CCF80080DCF800C00CF0EF
:101D5000100CCDF814C0D0F800C04CF0010CC0F845
:101D600000C0006800F00100059058028DE84F00A7
:101D700069464A48FFF7C0F94A4E4948C8463060AC
:101D8000C6E90175C6E903597561B561C6E9075A27
:101D9000D14630467562FEF78FFD08B1FEF784FC30
:101DA0006663B4633F4E3E4860367830C6E90358F8
:101DB0007561B561C6E90759756286E881083046E4
:101DC000FEF77AFD08B1FEF76FFC266300220521BD
:101DD0002520B463FFF7FCFA252056E0DFF8C88021
:101DE000C44554D1DFF8B0C00CF1100CDCF8008011
:101DF00048F48028CCF80080DCF800C00CF4802C7B
:101E0000CDF814C0D0F800C04CF0080CC0F800C0E9
:101E1000006800F0080005904FF440708DE84F0016
:101E200069462248FFF768F91E4E2148C036C84669
:101E30003060C6E90175C6E903597561B561C6E947
:101E4000075AD14630467562FEF736FD08B1FEF7F7
:101E50002BFC6663B463174E1548C6E903587561D9
:101E6000B561C6E907593030756286E881083046A9
:101E7000FEF722FD08B1FEF717FC266300220521BC
:101E80002720B463FFF7A4FA2720FFF793FA07B0DF
:101E9000BDE8F08F001001403038024000000240E1
:101EA000406402408433002000480040000C02409F
:101EB00028600240A434002070477047FEE700000D
:101EC000074910B5054808600846FEF7EEFB0028F4
:101ED00003D0BDE81040FEF7E7BB10BD0030024064
:101EE00000000020194808B5016841F48001016034
:101EF000016801F480010091016841F40011016062
:101F00000068002200F40010009005210C20FFF76B
:101F10005FFA0C20FFF74EFA002205210E20FFF792
:101F200057FA0E20FFF746FA002205213A20FFF764
:101F30004FFA3A20FFF73EFA002205214620FFF72C
:101F400047FABDE808404620FFF734BA303802406F
:101F500000B585B0142206496846FEF7D5F9002180
:101F6000684605F0C5FD0349086005B000BD0000E6
:101F700074E10008080000202DE9F04F87B014211B
:101F80006846FEF7DAF943480024016841F0800111
:101F90000160016801F080010591016841F00401D0
:101FA0000160016801F004010591016841F001013F
:101FB0000160016801F001010591016841F0020131
:101FC0000160016801F002010591016841F008011A
:101FD00001600068DFF8C08000F008004FF4C155D0
:101FE0000590002229464046FFF760F9DFF8AC90E3
:101FF00047F20F06002231464846FFF757F9DFF84F
:10200000A0A04FF4C057002239465046FFF74EF9C2
:10201000DFF890B00022C0215846FFF747F900953D
:102020000125CDE90154694640460394FFF764F861
:10203000F80000900220CDE90104032003900C2059
:10204000049069465846FFF757F80096CDE90154C9
:10205000694648460394FFF74FF848F21000CDE96F
:102060000004694648460294FFF746F80097CDE918
:102070000154694650460394FFF73EF8C020009093
:10208000CDE90154694658460394FFF735F807B087
:10209000BDE8F08F3038024000000240000C0240E2
:1020A0000008024000040240FEB5002108460AF084
:1020B0006FFC1F4D0020291D28600860091D1E4A65
:1020C0000860CDE900021B4905F1080302911A1FBF
:1020D000111F1A4805F0C0FA184805F05FFB174CAD
:1020E00094F82F004007204602D505F093FB01E04D
:1020F00005F05AFB4FF47A76104802F0FDF9A0B1D2
:102100000FA000F07FF830460BF018F960682968DE
:102110008842F1D0010E0091C0F30743C0F30722BB
:10212000C1B20EA000F06EF8FEBD12A0E9E70000FB
:102130000C00002061CB0008F1590008E8010020E4
:102140006C776970206468637020696E69742066BA
:1021500061696C2E2E2E0A0A000000004C6F63612C
:102160006C204950203A25642E25642E25642E25A6
:10217000640A0A006C776970206468637020696E75
:10218000697420737563636573732E2E2E0A0A00BB
:102190000C4810B50A4901604FF4E131416000215B
:1021A00081600C22C160C0E904128161C161FFF746
:1021B00075FD002803D0BDE81040FEF775BA10BDCC
:1021C00000100140043300200C4810B50A4901609A
:1021D0004FF4E1314160002181600C22C160C0E90F
:1021E00004128161C161FFF759FD002803D0BDE8E9
:1021F0001040FEF759BA10BD00480040443300209B
:10220000FEE770470FB407A108B508A000F01EFD57
:1022100003A800906A460020029900F053F801B02C
:102220005DF814FB1B5B313B33326D0025730000FE
:102230002DE9F041884600EB40012148154600EBAE
:10224000C104E16A01F0030002280BD0A06A626AAF
:10225000801A401E01D5226A1044854202DD89079A
:102260002BD005464DB30027A06A616A461A761E38
:1022700001D5206A0644D4E90801411AB14201DCC3
:10228000616A461AAE4200DB2E46616AE069324658
:1022900008444146FEF738F8606A3744B044AD1B45
:1022A00030446062606A216A884201D10020606225
:1022B000002DD9D13846BDE8F0810020FBE70000B1
:1022C0007C0100202DE9F04198B0804607A80290DB
:1022D00040200026CDE90306CDE9056815460C46E9
:1022E00014F8011B002974D0252908D002A800F099
:1022F00081FB05980028F3DA18B0BDE8F0810020D2
:10230000217823291BD02B2916D02D290ED0302936
:102310000FD000222178A1F130030A2B13D202EB57
:10232000820201EB4202303A641CF3E740F0010004
:1023300007E040F0020004E040F0040001E040F05B
:102340000800641CDCE70023CFB22E2F0BD114F859
:10235000011FA1F130070A2F05D203EB830301EB24
:102360004303303BF3E76C290DD068290BD070296B
:102370004AD00BDC252914D058292BD063290CD046
:10238000642911D112E014F8011BECE773292CD059
:10239000752916D0782907D11CE02868011D29600D
:1023A000017802A800F026FB641CA2E729680F1D33
:1023B0002F600968CDE900200A2202A800F04DFA3A
:1023C000F2E729680F1D2F600968CDE900200A2275
:1023D00007E023E029680F1D2F600968CDE9002080
:1023E000102202A800F09AFADEE72868011D296091
:1023F000076817F8011B0029D6D002A800F0FAFAE6
:1024000005980028F5DACFE72868011D29600168E2
:102410000820CDE9000603461022E2E705980028CF
:102420007FF76AAF049820B1024607A94046FFF73C
:10243000FFFEDDE90410084405905DE7FFF734FE78
:10244000012005F0F5F9FBE710B5502080F3118865
:10245000BFF34F8FBFF36F8F0BF0F6FC18B1044939
:102460004FF080500860002080F3118810BD0000FC
:1024700004ED00E030B593B030216846FDF75DFF14
:1024800014210CA8FDF759FF1B480025016841F0F5
:1024900080510160006800F0805011901748016879
:1024A00041F4804101600068022400F480401190F2
:1024B000092000904FF4803001900120CDE90504FF
:1024C00080050790192008904FF4A070CDE9090409
:1024D00004200B906846FFF7BFF80CA90F2081E895
:1024E00031004FF4A0500F90E002109005210CA88D
:1024F000FEF7A0FF13B030BD40380240007000402E
:102500000548016841F47001016003494FF0006023
:10251000803908607047000088ED00E00148FFF74F
:1025200071BA000004350020F0B50268254D264E32
:10253000264FDFF89CC0274B4FF0804EA84209D0B1
:10254000704507D0B04205D0B84203D0604501D0F5
:10255000984203D122F070044A682243A8421BD05B
:10256000704519D0B04217D0B84215D0604513D08D
:10257000984211D0184CA0420ED0184CA0420BD05B
:10258000174CA04208D0174CA04205D0164CA042D0
:1025900002D0164CA04203D122F44074CA682243F0
:1025A0004C6922F08002224302608A68C2620A6893
:1025B0008262A84201D0984201D1096901630121D8
:1025C0004161F0BD000001400004004000080040EF
:1025D000000C004000040140004001400044014064
:1025E0000048014000180040001C0040002000404E
:1025F00010B5806B0021C185C184FFF7C4FA10BDFE
:102600000168CA6822F49072CA6001684A6922F0BF
:1026100001024A61202180F83A10704710B590F805
:102620003A10222901D0022010BD8168B1F5805FE7
:1026300011D00169002901681FD0496801F07F03AA
:10264000816A4A1C82620B70C18D491E0904090C03
:10265000C18518D02BE00269816A002A026852689D
:1026600005D0D2B20A80816A491C8162ECE7C2F3CC
:1026700008020A80816A891CF7E74A68816A4B1C54
:1026800083620A70E0E70168CA6822F02002CA602B
:102690000168CA6822F48072CA6001684A6922F03F
:1026A00001024A61202180F83A10FFF705FC002062
:1026B00010BD00002DE9F041044600680169E268A0
:1026C00021F4405111430161A1682069E26901438D
:1026D0006069104301432068C26849F20C639A4361
:1026E0000A43C26020684169A26921F44071114324
:1026F0004161E069192764253226B0F5004F354A5B
:10270000354920684FF0000806D0884201D0904239
:1027100036D1FEF75FFF35E0884201D0904202D10A
:10272000FEF758FF01E0FEF745FF61684A18A0FB7D
:10273000070148EB0803FDF7A3FD0146B0FBF5F0E8
:102740000201B1FBF5F06FF01803584301EB800074
:1027500006EBC000B0FBF5F000F0F80002EB400221
:10276000B1FBF5F0584301EB800006EBC000B0FB75
:10277000F5F000F00700216810448860BDE8F081A2
:10278000FEF718FF01466068830F8200A1FB070176
:10279000FDF776FD0146B0FBF5F06FF018025043EF
:1027A00001EB800006EB0010B0FBF5F000F0F0024A
:1027B000B1FBF5F002EB0012B1FBF5F06FF018037E
:1027C000584301EB800006EB0010B0FBF5F000F081
:1027D0000F00D0E7001401400010014090F83910BC
:1027E000212901D0022070478168B1F5805F016A1C
:1027F0000BD04A1C0262026809785160C18C491EE4
:102800000904090CC1840ED017E009880268C1F3DD
:102810000801516001690029016A02D0491C016266
:10282000ECE7891CFBE70168CA6822F08002CA60F5
:102830000068C16841F04001C1600020704700009D
:102840000148FFF7A1B90000043300200148FFF759
:102850009BB9000044330020FEE72DE9FC5F0E0029
:102860008046DDE90C47C6F1000099469246834652
:1028700000D40846012502E0B0FBFAF06D1C50457B
:10288000FAD2A94500D94D4624B1002E01DB7807C4
:1028900000D5641EB80702D5B9F1000F10D0F807B3
:1028A0000ED16CB12046641EA84209D920214046B1
:1028B00000F0A0F8D8F80C000028F2DABDE8FC9F80
:1028C000002E02DA5E462D2102E0780707D52B2183
:1028D000404600F08FF8D8F80C000028EEDB07F037
:1028E0000300022810D1B9F1000F0DD164B12046C8
:1028F000641EA84208D93021404600F07BF8D8F881
:102900000C000028F2DAD9E7CDE900474B465246E1
:102910003146404600F002F8D0E700002DE9F84FBC
:102920008246DDE90A4B0125994617468846084646
:102930002E4602E0B0FBF7F0761CB842FAD2B14561
:1029400000D94E465FEACB701AD1CCB15FEA8B70EA
:1029500002D5B9F1000F02D0202000900AE030200B
:10296000FBE75046009900F045F8DAF80C00002823
:102970003BDB2CB12046641EB042F2D800E07D4320
:10298000B8FBF5F0B84201D3012000E000204A4630
:10299000A9F10109012A01DD012100E0002108431C
:1029A000EDD1DFF84C90B8FBF5F000FB158819F875
:1029B0000010504600F01EF8DAF80C00002803DB87
:1029C000B5FBF7F5002DEED15FEACB700DD0002CF2
:1029D0000BD02046641EB04207D92021504600F09B
:1029E00009F8DAF80C000028F1DABDE8F88F0000E9
:1029F00040E3000810B50446D4E90130421C93427C
:102A000005DB23681954A260E068401CE060D4E94B
:102A10000102824209D121682069FFF709FCA168FF
:102A2000884203D04FF0FF30E06010BD0020A0606E
:102A300010BD00000FB4054B10B503A9044A02985D
:102A400000F028F810BC5DF814FB0000AD5A000837
:102A5000E40100200907090E002804DB00F1E02052
:102A600080F80014704700F00F0000F1E02080F8BB
:102A7000141D704702E008C8121F08C1002AFAD1CD
:102A800070477047002001E001C1121F002AFBD1EE
:102A9000704700002DE9FF4F8BB09A460F46054660
:102AA000002606E025280BD052460D9990476D1C54
:102AB000761C28780028F5D10FB03046BDE8F08F9D
:102AC0000024A0460122604900E0044315F8013FBC
:102AD000203B02FA03F00842F7D128782E2817D1BC
:102AE00015F8010F44F004042A280ED06FF02F02CD
:102AF0002878A0F1300109290AD808EB880102EBF7
:102B0000410100EB01086D1CF2E757F8048B6D1CC6
:102B1000287869283ED006DC0028CDD063280BD069
:102B2000642804D136E0732810D075284BD0524663
:102B30000D999047761C85E017F8040B8DF800007E
:102B400000208DF80100E946012003E057F8049BBE
:102B50004FF0FF3061074FF0000401D40AE0641C1D
:102B600044450DDA8442FADB19F804100029F6D145
:102B700006E0641C8442FCDB19F804100029F8D13B
:102B8000264404E019F8010B52460D999047641E43
:102B9000F8D257E001CF4FF00A0B002802DA40428A
:102BA0002D2102E0210504D52B218DF824100121CF
:102BB00003E0E10705D02021F7E70DF12009089196
:102BC0000CE00021F9E701CF4FF00A0BF9E7594675
:102BD000FDF7D2FB01F1300209F8012D0028F6D1F2
:102BE000ADEB090000F1200B600701D44FF00108A4
:102BF000D84502DDA8EB0B0000E000208046002451
:102C000006E009A85246005D0D999047641C761CA9
:102C100008988442F5DB04E0302052460D99904735
:102C2000761CB8F10001A8F10108F5DC05E019F8FF
:102C3000010B52460D999047761CBBF10001ABF198
:102C4000010BF4DC6D1C34E7092801000FB408B552
:102C500003A800906A4600200299FFF733FB01B0F9
:102C60005DF814FB10B50446406880472246206892
:102C7000BDE81040014906F08FBB0000652C00083C
:102C800058B1026A002A0FD0537A082B0CD1096878
:102C9000926A914208D100F035BB04A340F27B3226
:102CA00010A114A0FFF7C6BE704700002E2E2F4DB6
:102CB0006964646C6577617265732F5468697264C6
:102CC0005F50617274792F4C7749502F7372632F64
:102CD000636F72652F697076342F646863702E633A
:102CE000000000006E6574696620213D204E554C41
:102CF0004C000000417373657274696F6E20222569
:102D00007322206661696C6564206174206C696E51
:102D10006520256420696E2025730A002DE9FC4199
:102D200005001BD02C6AF4B14FF0000EA4F820E08F
:102D3000606B4FF03C02411C4FF4803C4FF00107A8
:102D40004FF6FF7619D01E30B0FBF2F0604500D38D
:102D500030460004000C60840ED00EE02DA340F23B
:102D6000FE323AA103E02BA34FF480623EA144A0BF
:102D7000FFF760FEBDE8FC816784A36B581C0CD094
:102D80001E33B3FBF2F1614500D331460804000C59
:102D9000208300D12783208BA083E06B411C0CD0C3
:102DA0001E30B0FBF2F2624500D332461004000C34
:102DB000608300D16783608BE083218B608B8142CD
:102DC00002D308B1A4F818E0E07A08B1E06A09E09B
:102DD00094F828307F2B01D8FF2003E0C02B03D3C9
:102DE0006FF07F40009000E00096206B019028B9C2
:102DF000A06A0099084040F0807001900A212046A6
:102E000001F072FB01AB6A4604F12801284604F088
:102E1000A1FCAFE72E2E2F4D6964646C657761725B
:102E200065732F54686972645F50617274792F4CB6
:102E30007749502F7372632F636F72652F697076B5
:102E4000342F646863702E63000000006468637050
:102E50005F62696E643A206E6574696620213D2068
:102E60004E554C4C00000000646863705F62696EF0
:102E7000643A206468637020213D204E554C4C001C
:102E8000417373657274696F6E2022257322206608
:102E900061696C6564206174206C696E65202564CD
:102EA00020696E2025730A0070B5046A0546082162
:102EB000204601F019FB002204F12801284602F007
:102EC0004FFAA07AFF2801D2401CA0724FF4FA7189
:102ED00040F2E730B0FBF1F0E08270BD70B52948F8
:102EE00004684CE0216AA1B3487A90B3488C68B179
:102EF000088C401C80B208844A8C904206D120463F
:102F000001F0C6F9204600F0D3FA37E0C88B18B1BB
:102F1000421ECA83012806D0888BD0B1421E8A8304
:102F2000012817D02AE0256A2046697A012905D0B0
:102F30000A2903D0052901D004291FD101F00AF87C
:102F4000688C298C401A022818DB00EBD0704008EE
:102F5000E88313E0256A2046697A012903D00A290B
:102F600001D005290AD101F0E7F9688B298C401AB4
:102F7000022803DB00EBD0704008A8832468002CF3
:102F8000B0D170BDF40000202DE9F04116460C468A
:102F900005002CD0002C35D0E068002806D05DA3B9
:102FA00040F21F7269A173A0FFF744FD2069002859
:102FB00006D058A34FF4E46278A16EA0FFF73AFD63
:102FC00000224FF49A773946104604F0A9FDE060DC
:102FD000002821D04089B84206D24EA340F2277281
:102FE00078A164A0FFF726FD032E1BD117E049A3AB
:102FF00040F21D7283A15FA0FFF71CFD6FF00F0070
:10300000BDE8F08143A340F21E7286A159A0FFF7EC
:1030100011FD6FF00500F3E74FF0FF30F0E7607A45
:10302000032808D1A07A874F08B1B86802E0FDF7FD
:1030300059F9B8602060E0680121002740682061EC
:10304000017020694170216995F828008870206915
:10305000C770206803F036FF2169082E4860206998
:103060000781206947812069C7600AD0042E08D0F3
:10307000072E06D0032E07D1607A052801D0042838
:1030800002D121696868C8602069076120694761C9
:1030900020698761002095F82810814205D906280B
:1030A00003D2291891F8291000E0002100F11C0238
:1030B0002369401C80B299541028ECD3002000F101
:1030C0002C012269401C80B257544028F7D30020BD
:1030D00000F16C012269401C80B257548028F7D35C
:1030E00021695948C1F8EC00A7820020226900F14B
:1030F000F0015054401C80B24428F7D301223521FE
:10310000204600F011FB3146204600F05FFB002016
:1031100076E700002E2E2F4D6964646C657761722E
:1031200065732F54686972645F50617274792F4CB3
:103130007749502F7372632F636F72652F697076B2
:10314000342F646863702E6300000000646863704D
:103150005F6372656174655F6D73673A206468636D
:10316000702D3E705F6F7574203D3D204E554C4C68
:1031700000000000417373657274696F6E20222530
:103180007322206661696C6564206174206C696ECD
:103190006520256420696E2025730A0064686370C9
:1031A0005F6372656174655F6D73673A206468631D
:1031B000702D3E6D73675F6F7574203D3D204E55D9
:1031C0004C4C0000646863705F6372656174655F96
:1031D0006D73673A20636865636B2074686174205F
:1031E000666972737420706275662063616E206810
:1031F0006F6C642073747275637420646863705FAD
:103200006D736700646863705F6372656174655FA6
:103210006D73673A206E6574696620213D204E55B6
:103220004C4C0000646863705F6372656174655F35
:103230006D73673A206468637020213D204E554CC1
:103240004C000000580100206382536310B50B4C02
:103250002078002805D10AA3F32217A11FA0FFF7A9
:10326000E9FB2078401E10F0FF00207004D1E068D8
:1032700009F092FE0020E06010BD0000580100201F
:103280002E2E2F4D6964646C6577617265732F54BF
:10329000686972645F50617274792F4C7749502F5E
:1032A0007372632F636F72652F697076342F646851
:1032B00063702E6300000000646863705F70636277
:1032C0005F726566636F756E7428293A2072656651
:1032D000636F756E74206572726F720041737365EF
:1032E0007274696F6E2022257322206661696C6595
:1032F00064206174206C696E6520256420696E20ED
:1033000025730A007CB5046A06460C21204601F0AC
:10331000EBF8042221463046FFF736FE050021D1A6
:1033200004223221204600F0FFF9A06A03F0CAFD12
:103330000146204600F0AEFA204600F079FBA08A54
:10334000F03081B2E06805F0DFF90D484323CDE9A4
:1033500000600D480B4AE168C06809F069FE20462C
:1033600000F014F8A07AFF2801D2401CA07242F6A7
:1033700003104FF4FA71B0FBF1F0E08228467CBDF7
:103380002CE3000830E300085801002010B50400C9
:1033900003D0E068002809D00FE0BDE8104010A37A
:1033A00040F26D721CA124A0FFF744BB0CA340F2B5
:1033B0006E722BA120A0FFF73DFB2069002806D1EB
:1033C00007A340F26F7230A11BA0FFF733FBE06848
:1033D00008B104F0FDFF0020E060206110BD000096
:1033E0002E2E2F4D6964646C6577617265732F545E
:1033F000686972645F50617274792F4C7749502FFD
:103400007372632F636F72652F697076342F6468EF
:1034100063702E6300000000646863705F64656C15
:103420006574655F6D73673A206468637020213D41
:10343000204E554C4C000000417373657274696FE7
:103440006E2022257322206661696C656420617498
:10345000206C696E6520256420696E2025730A0042
:10346000646863705F64656C6574655F6D73673A0B
:1034700020646863702D3E705F6F757420213D205D
:103480004E554C4C00000000646863705F64656CCE
:103490006574655F6D73673A20646863702D3E6D77
:1034A00073675F6F757420213D204E554C4C0000B2
:1034B0002DE9FC41046A07460020A062062120464F
:1034C00001F012F8012221463846FFF75DFD0600A3
:1034D00030D102223921204600F026F9F98C20460D
:1034E00000F056FA04223721204600F01DF9DFF8DB
:1034F00080800025204618F8051000F067F96D1C43
:10350000EDB2042DF6D3204600F092FAA08AF030F6
:1035100081B2E06805F0F8F816484323CDE9007061
:103520001348154A401EE168C06809F081FD204635
:10353000FFF72CFFA07AFF2801D2401CA072C1B275
:10354000062902D20120884000E03C2000EB400127
:10355000C1EBC0104FF6FF7101EAC0004FF4FA71E1
:1035600000F2F310B0FBF1F0E0823046BDE8FC81E0
:10357000590100202CE3000830E3000870B50B4827
:10358000002504680EE0216A59B1C88A012803D9D0
:10359000A0F10100C88204E003D1CD82204601F0F1
:1035A000D7F82468002CEED170BD0000F400002094
:1035B000F8B5046A0021204DE1622163E878A5F1A5
:1035C000280608B1F0686063287908B1306901E025
:1035D000606B4008A063687908B1706903E0606BB4
:1035E000C0EBC000C008E06360680069A062A87911
:1035F00030B1B06903F066FCE0620120E07200E0E7
:10360000E172E87918B1F06903F05CFC20630024F2
:103610000DE006EB8400006A03F054FC009069465C
:10362000204601F09BFA641CE4B2022C03D2281954
:10363000007A0028EDD1F8BD48AF002010B5154C38
:10364000207800281ED1E068002805D012A3D922D6
:103650001FA129A0FFF7EEF909F08EFCE060B0B1E0
:10366000017A442241F0200101722D4909F01EFB2C
:1036700043222B49E06809F071FB00222949E068E8
:1036800009F087FC2078401C2070002010BD4FF00E
:10369000FF3010BD580100202E2E2F4D6964646C40
:1036A0006577617265732F54686972645F506172E7
:1036B00074792F4C7749502F7372632F636F726543
:1036C0002F697076342F646863702E6300000000E9
:1036D000646863705F696E635F7063625F72656682
:1036E000636F756E7428293A206D656D6F7279204D
:1036F0006C65616B00000000417373657274696FE3
:103700006E2022257322206661696C6564206174D5
:10371000206C696E6520256420696E2025730A007F
:103720002CE30008E140000870B50E460446818A8B
:10373000901C08441546442806D90BA34FF4AE62EA
:10374000174918A0FFF776F9A08A21690144401CA7
:10375000A08281F8F060A08A21690144401CA08207
:1037600081F8F05070BD00002E2E2F4D6964646CFE
:103770006577617265732F54686972645F50617216
:1037800074792F4C7749502F7372632F636F726572
:103790002F697076342F646863702E630000000018
:1037A00078E40008417373657274696F6E20222596
:1037B0007322206661696C6564206174206C696E97
:1037C0006520256420696E2025730A0070B50446C3
:1037D000808A0D46442806D307A340F27B5214A1E9
:1037E00022A0FFF727F9A08A21690144401CA0828A
:1037F00081F8F05070BD00002E2E2F4D6964646C6E
:103800006577617265732F54686972645F50617285
:1038100074792F4C7749502F7372632F636F7265E1
:103820002F697076342F646863702E630000000087
:10383000646863705F6F7074696F6E5F62797465DE
:103840003A20646863702D3E6F7074696F6E735FA9
:103850006F75745F6C656E203C20444843505F4F29
:103860005054494F4E535F4C454E000041737365B1
:103870007274696F6E2022257322206661696C65FF
:1038800064206174206C696E6520256420696E2057
:1038900025730A0070B50446808A0D46001D442831
:1038A00006D913A340F28A521FA12FA0FFF7C2F836
:1038B000A08A2269290E0244401CA08282F8F010DE
:1038C000A08A2269290C0244401CA08282F8F010D0
:1038D000A08A2269290A0244401CA08282F8F010C2
:1038E000A08A21690144401CA08281F8F05070BD7B
:1038F0002E2E2F4D6964646C6577617265732F5449
:10390000686972645F50617274792F4C7749502FE7
:103910007372632F636F72652F697076342F6468DA
:1039200063702E6300000000646863705F6F7074E2
:10393000696F6E5F6C6F6E673A20646863702D3ECE
:103940006F7074696F6E735F6F75745F6C656E20F6
:103950002B2034203C3D20444843505F4F50544975
:103960004F4E535F4C454E00417373657274696FDF
:103970006E2022257322206661696C656420617463
:10398000206C696E6520256420696E2025730A000D
:1039900070B50446808A0D46801C442806D90BA3C6
:1039A00040F28252174918A0FFF744F8A08A226912
:1039B000290A0244401CA08282F8F010A08A2169E2
:1039C0000144401CA08281F8F05070BD2E2E2F4D76
:1039D0006964646C6577617265732F546869726499
:1039E0005F50617274792F4C7749502F7372632F37
:1039F000636F72652F697076342F646863702E630D
:103A00000000000034E40008417373657274696F4C
:103A10006E2022257322206661696C6564206174C2
:103A2000206C696E6520256420696E2025730A006C
:103A300010B5040003D02069002809D00FE0BDE8CC
:103A4000104016A340F2827222A12BA0FEF7F2BF13
:103A500012A340F2837232A127A0FEF7EBFFA08AE7
:103A6000442806D30DA340F2847238A122A0FEF7A9
:103A7000E1FFA08A2269FF210244401CA08282F853
:103A8000F010002105E022690244401CA08282F867
:103A9000F010A08A4428F6D310BD00002E2E2F4D22
:103AA0006964646C6577617265732F5468697264C8
:103AB0005F50617274792F4C7749502F7372632F66
:103AC000636F72652F697076342F646863702E633C
:103AD00000000000646863705F6F7074696F6E5FF0
:103AE000747261696C65723A206468637020213D6C
:103AF000204E554C4C000000417373657274696F21
:103B00006E2022257322206661696C6564206174D1
:103B1000206C696E6520256420696E2025730A007B
:103B2000646863705F6F7074696F6E5F74726169EF
:103B30006C65723A20646863702D3E6D73675F6FC9
:103B4000757420213D204E554C4C0A00646863700A
:103B50005F6F7074696F6E5F747261696C65723AE1
:103B600020646863702D3E6F7074696F6E735F6F51
:103B700075745F6C656E203C20444843505F4F5025
:103B800054494F4E535F4C454E0A00002DE9F34F08
:103B900085B000210446039101910A21AA48FCF74F
:103BA000CCFB069840892C2875D306994FF0F00875
:103BB0004868606006980089069F06E0A8EB01024D
:103BC000401A3F681FFA82F880B2002F63D07989CB
:103BD00042464145F2D916468146FBE0B01C1FFA29
:103BE00080FA7A89701C4FF0FF34824203D90BEBC4
:103BF0000600407803E0386808B14068007834294E
:103C000005465ED00CDC032935D004DC002925D024
:103C100001290DD127E0062936D0332908D147E004
:103C200035295ED0362965D03A296BD03B2972D030
:103C300000253044801C86B2002D0ED0002000905C
:103C40000A2C06D381A340F236628EA192A0FEF721
:103C5000F1FE7D48005D002865D0ABE00020761EB7
:103C60000546B6B2E5E7042803D078A340F2F65241
:103C700023E00624DDE70425042803D273A340F2E1
:103C8000FB5211E00724D4E7810705D06FA340F26F
:103C900001628BA1A5E056E0082800D30825A842C0
:103CA00004D26AA340F2046289A19AE00824C0E722
:103CB000042804D065A340F209628AA191E003249C
:103CC000B7E7012803D061A340F217620EE0B8F114
:103CD000F00F04D05DA340F2196285A181E00024B9
:103CE000A7E7012804D059A340F21D6286A178E01D
:103CF00001249EE7042803D054A340F22162DCE7AC
:103D0000022496E7042804D050A340F22562D4E7A9
:103D100001E004248DE7042803D04CA340F229627B
:103D2000CBE7052485E7042D01D2284600E00420D6
:103D30000246029053466946384604F0BBFA0146F3
:103D40000298814204D06FF0010007B0BDE8F08F07
:103D5000042D18D9A80704D03CA340F23E626DA1FF
:103D60003FE0394901200855009803F0ABF8364987
:103D70002D1F2839EDB241F824000AF104001FFA82
:103D800080FA641C5CE7042D06D0012D08D02FA317
:103D90004FF4C96265A124E0009803F093F801E0B4
:103DA0009DF800000090284801210155283800990D
:103DB00040F824107889B04219D8311AA9EB0000D4
:103DC0008EB21FFA80F94E4519D2B9F1000F16D004
:103DD0003F6817B1D7F804B00AE01CA340F2546260
:103DE00057A12DA0FEF726FE6FF00500ADE737B115
:103DF0004E4504D21BF80610FF297FF4EFAE12499E
:103E0000087868B1A1F12800002200680A70012832
:103E100008D0022802D003280AD001E00120019036
:103E2000039840B1002003904FF06C08EC20C3E6EB
:103E300001200190F6E70198002886D0002001902B
:103E40004FF02C086C20B7E648AF00202E2E2F4DE7
:103E50006964646C6577617265732F546869726414
:103E60005F50617274792F4C7749502F7372632FB2
:103E7000636F72652F697076342F646863702E6388
:103E800000000000636865636B206465636F6465B0
:103E90005F69647800000000417373657274696F34
:103EA0006E2022257322206661696C65642061742E
:103EB000206C696E6520256420696E2025730A00D8
:103EC0006C656E2025252034203D3D20300000000B
:103ED0006C656E203E3D206465636F64655F6C6554
:103EE0006E0000006C656E203D3D20340000000037
:103EF0006F7665726C6F616420696E2066696C65AF
:103F00002F736E616D6500006C656E203D3D203144
:103F1000000000006465636F64655F6C656E20255A
:103F2000252034203D3D203000000000696E766180
:103F30006C6964206465636F64655F6C656E000026
:103F40006E657874207062756620776173206E7577
:103F50006C6C00002DE9F843056A064604212846EA
:103F600000F0C2FA032229463046FFF70DF8070099
:103F70002ED1022239212846FFF7D6FBF18C2846A4
:103F8000FFF706FD042237212846FFF7CDFBDFF8B7
:103F900074800024284618F80410FFF717FC641CEE
:103FA000E4B2042CF6D32846FFF742FDA88AF0308D
:103FB00081B2E86804F0A8FB12480096401E432333
:103FC000114AE968C06809F018F82846FFF7DEF9D9
:103FD000A87AFF2801D2401CA872C0B20A2804D2D5
:103FE0004FF47A7110FB01F001E042F2107080B2E0
:103FF0004FF4FA7100F2F310B0FBF1F0E8823846AA
:10400000BDE8F8835901002030E300082DE9F843AA
:10401000046A07460321204600F066FA032221467F
:104020003846FEF7B1FF06003BD102223921204677
:10403000FFF77AFB4FF410712046FFF7A9FC04222A
:1040400032212046FFF770FBA06A02F03BFF0146D9
:104050002046FFF71FFC042237212046FFF764FBB0
:10406000DFF874800025204618F80510FFF7AEFB36
:104070006D1CEDB2042DF6D32046FFF7D9FCA08AC3
:10408000F03081B2E06804F03FFB13480097401E17
:104090004323124AE168C06808F0AFFF2046FFF7EB
:1040A00075F9A07AFF2801D2401CA072C0B20A287C
:1040B00004D24FF47A7110FB01F001E042F210706B
:1040C00080B24FF4FA7100F2F310B0FBF1F0E0822D
:1040D0003046BDE8F88300005901002030E30008B5
:1040E0002DE9F0414A485668174645682C6A002C6D
:1040F00071D0207A4FF0000800286DD0606830B190
:1041000044A34FF4D56251A155A0FEF793FC7889E2
:104110002C2876D33078022873D1002095F8281007
:1041200001E0401CC0B2814209D9062807D22A18F2
:10413000331892F829201B7F9A4261D1F1E7706809
:1041400002F0C0FE216888425AD139462046FFF766
:104150001DFD00BB4C494878E8B1A1F12802107957
:10416000052804D006281FD0022836D048E0607AFF
:10417000012806D0032813D0042811D005280FD019
:104180003EE02846FFF714FA95F82F00000703D504
:104190002846FEF789FE33E02846FEF7BFFD2FE0F4
:1041A0002846FFF705FAF7E7607A032805D00128CB
:1041B00003D0042801D0052822D10C21286A00F060
:1041C00093F9324B28461A46114603F0C3FA2846A3
:1041D000FFF76EF914E016E013E0607A06280FD1BD
:1041E000A4F816802E462D6A887848B1906802F0AF
:1041F00069FE686268680069A862304600F0F8F8F5
:104200000CB1C4F804803846BDE8F04104F0E0B8D1
:10421000B47600202E2E2F4D6964646C6577617230
:1042200065732F54686972645F50617274792F4CA2
:104230007749502F7372632F636F72652F697076A1
:10424000342F646863702E63000000007265706C28
:1042500079207761736E277420667265656400004B
:10426000417373657274696F6E2022257322206614
:1042700061696C6564206174206C696E65202564D9
:1042800020696E2025730A0048AF00202CE3000847
:104290007CB5046A0546F4B1606A0190284600F0D6
:1042A00049FA06460021204600F01EF9002060620F
:1042B000A062E0622063E063A063606360842084A6
:1042C000E083A08356B1072221462846FEF75CFE14
:1042D000060005D024E06FF00F007CBD00207CBDFF
:1042E000042236212046FFF71FFA019802F0EAFD6A
:1042F00001462046FFF7CEFA2046FFF799FBA08A39
:10430000F03081B2E06804F0FFF9094800954323DA
:1043100001AAE168C06808F070FE2046FFF736F891
:10432000044B28461A46114603F014FA30467CBD69
:10433000580100202CE300082DE9F843046A0646E2
:104340000521204600F0D0F8032221463046FEF732
:104350001BFE07002FD1022239212046FFF7E4F986
:10436000F18C2046FFF714FB042237212046FFF78B
:10437000DBF9DFF878800025204618F80510FFF7F4
:1043800025FA6D1CEDB2042DF6D32046FFF750FB45
:10439000A08AF03081B2E06804F0B6F913480096C4
:1043A000401E432304F12402E168C06808F025FEA2
:1043B0002046FEF7EBFFA07AFF2801D2401CA07236
:1043C000C0B20A2804D24FF4FA6110FB01F001E0F8
:1043D00044F6206080B24FF4FA7100F2F310B0FBA3
:1043E000F1F0E0823846BDE8F88300005901002072
:1043F0002DE9FC41046A07460121204600F074F8CB
:10440000032221463846FEF7BFFD060048D10222AE
:1044100039212046FFF788F9F98C2046FFF7B8FAD2
:10442000042232212046FFF77FF9A06A02F04AFDFC
:1044300001462046FFF72EFA042236212046FFF7D8
:1044400073F9606A02F03EFD01462046FFF722FA4A
:10445000042237212046FFF767F9DFF88080002526
:10446000204618F80510FFF7B1F96D1CEDB2042DC8
:10447000F6D32046FFF7DCFAA08AF03081B2E0687C
:1044800004F042F916484323CDE900701348154A59
:10449000401EE168C06808F0CBFD2046FEF776FFBD
:1044A000A07AFF2801D2401CA072C1B2062902D214
:1044B0000120884000E03C2000EB4001C1EBC0102F
:1044C0004FF6FF7101EAC0004FF4FA7100F2F310E9
:1044D000B0FBF1F0E0823046BDE8FC8159010020DC
:1044E0002CE3000830E30008427A8A4203D041728C
:1044F00000218172C182704770B505006FF00F0412
:104500002CD095F82F00C0072DD0E88C2C6A4FF0E6
:10451000FF36B0F5107F1FD3002C2DD0E06830B1EE
:104520001EA34FF43C722BA130A0FEF783FA606803
:1045300030B11AA340F2F12236A12CA0FEF77AFA8C
:10454000207A08B1FEF782FE40212046FBF7F5FEF7
:10455000FFF774F8002816D0304670BD0FA340F264
:10456000D62231A103E00DA340F2D72232A11FA031
:10457000FEF760FA204670BD402002F0D1FD040035
:10458000EAD02C62E0E7012020722846FEF790FF77
:104590000028F0D0284600F061F8DDE72E2E2F4DE0
:1045A0006964646C6577617265732F5468697264BD
:1045B0005F50617274792F4C7749502F7372632F5B
:1045C000636F72652F697076342F646863702E6331
:1045D000000000007062756620705F6F7574207750
:1045E00061736E277420667265656400417373653C
:1045F0007274696F6E2022257322206661696C6572
:1046000064206174206C696E6520256420696E20C9
:1046100025730A007265706C79207761736E277458
:1046200020667265656400006E6574696620213DD0
:10463000204E554C4C0000006E657469662069730D
:10464000206E6F742075702C206F6C6420737479E9
:104650006C6520706F72743F0000000010B5002878
:1046600017D0046A002C13D0606830B10DA340F25B
:104670004F521AA11EA0FEF7DDF900212046FFF7D8
:1046800033FF207A002803D0FEF7E0FD00202072DF
:1046900010BDBDE8104003A340F242521EA114A079
:1046A000FEF7C8B92E2E2F4D6964646C6577617270
:1046B00065732F54686972645F50617274792F4C0E
:1046C0007749502F7372632F636F72652F6970760D
:1046D000342F646863702E63000000007265706C94
:1046E00079207761736E27742066726565640000B7
:1046F000417373657274696F6E2022257322206680
:1047000061696C6564206174206C696E6520256444
:1047100020696E2025730A00646863705F73746F8C
:10472000703A206E6574696620213D204E554C4CD0
:104730000000000040B1006A30B1407A0A2805D07C
:10474000052803D0042801D00020704701207047BD
:1047500010B5026A0446517A0C290FD006290DD0F3
:1047600001290FD0082919D0032923D1907A0228D2
:1047700012D22046BDE81040FFF748BCBDE810400B
:10478000FEF796BE907A0528204603D8BDE8104073
:10479000FFF72EBEFFF77CFD2046EFE7907A012859
:1047A000204603D8BDE81040FEF77EBBBDE81040B0
:1047B000FEF7B4BA10BD00002DE9F35FDFF8889072
:1047C000064600EB0611A9F5886B00240BEB0115DA
:1047D000A24605F1100804EB4407494659F8273072
:1047E00053B101EB8700027AB24205D142684046DC
:1047F0000199984749F827A0641CE4B2042CEAD335
:10480000002104245A46B1420DD001EB011002EB05
:104810000010837A022B06D1C07BEB7B984202D139
:10482000EC73BDE8FC9F491CC9B20429EBD3E87BBB
:104830000428F6D2054E56F8200008F0ADFBE97BBF
:1048400046F821A0ECE700008476002034720020B6
:104850002DE9F0410646344F00EB061007EB00143B
:10486000042E06D331A34FF47E723CA142A0FEF782
:10487000E1F8A07A002854D000254FF00108012863
:104880000CD0022821D0032845D0BDE8F04127A351
:1048900040F2374242A138A0FEF7CCB8FBF722FD28
:1048A00082B2002000EB001107EB01118B7A022B82
:1048B00002D109899142F1D0401CC0B20428F1D341
:1048C00022810220A072E5721CE0207B401E10F0C5
:1048D000FF00207325D1607B401CC0B260730428A8
:1048E00005D020733046BDE8F04100F06DB8E07AA5
:1048F0000146401C022809D2314A02EB8101496875
:1049000021B1E07284F80C806573EBE7002130463A
:10491000FFF752FF04E0206810B1401E206000D174
:10492000A572BDE8F0810000447200202E2E2F4DAC
:104930006964646C6577617265732F546869726429
:104940005F50617274792F4C7749502F7372632FC7
:10495000636F72652F646E732E6300006172726103
:104960007920696E646578206F7574206F662062A7
:104970006F756E6473000000417373657274696FC4
:104980006E2022257322206661696C656420617443
:10499000206C696E6520256420696E2025730A00ED
:1049A000756E6B6E6F776E20646E735F7461626C90
:1049B0006520656E7472792073746174653A0000C5
:1049C000A0000020704700002DE9FF5F0446454924
:1049D00000EB041001EB0016F07A022806D342A384
:1049E00040F2ED224CA152A0FEF724F8F17A5A4889
:1049F000002550F8210038B306F110000446FBF7FB
:104A0000A7FC123081B20022104603F089F85FEA59
:104A1000000A62D0009501950295308902F054FA9F
:104A2000ADF8000001208DF802004FF4807BADF856
:104A300004B00C226946504603F08EFF0C27641E1A
:104A4000641CA04600250BE000212046FFF7B4FEC1
:104A5000B572002004B0BDE8F09F6D1CEDB2641C7F
:104A600020782E2801D00028F7D1A4EB08001FFAE7
:104A700080F92A463946504603F036FE781C83B248
:104A80004A464146504604F025F87819401C87B242
:104A900020780028D4D100223946504603F024FE65
:104AA0007F1CADF80CB0BBB2ADF80EB0042203A968
:104AB000504604F00FF8F27A2749F07B01EB8202AE
:104AC00008493523103951F82000514608F07CFA86
:104AD0000446504603F07CFC01E04FF0FF342046D2
:104AE000B8E70000447200202E2E2F4D6964646CDC
:104AF0006577617265732F54686972645F50617283
:104B000074792F4C7749502F7372632F636F7265DE
:104B10002F646E732E630000646E7320736572766B
:104B20006572206F7574206F662061727261790002
:104B3000417373657274696F6E202225732220663B
:104B400061696C6564206174206C696E6520256400
:104B500020696E2025730A00A0000020022805D2DB
:104B6000044A02EB800011B10968016070470249F4
:104B7000FAE70000A00000202CE3000810B5002494
:104B80002046FFF765FE641CE4B2042CF8D310BD88
:104B900070B505460C46880706D009A34FF4CE72BF
:104BA00013A11BA0FDF746FF04F04CFBA9680968A0
:104BB0002160A9680C60BDE8704004F04FBB0000A4
:104BC0002E2E2F4D6964646C6577617265732F5466
:104BD000686972645F50617274792F4C7749502F05
:104BE0007372632F636F72652F6D656D702E630036
:104BF0006D656D705F667265653A206D656D2070DC
:104C0000726F7065726C7920616C69676E656400A3
:104C1000417373657274696F6E202225732220665A
:104C200061696C6564206174206C696E652025641F
:104C300020696E2025730A0070B5044604F002FB5B
:104C40000546A0680468002C0FD021680160A00709
:104C500006D008A34FF4A47212A11BA0FDF7EAFE30
:104C6000284604F0FBFA204670BD284604F0F6FA08
:104C7000002070BD2E2E2F4D6964646C65776172C3
:104C800065732F54686972645F50617274792F4C38
:104C90007749502F7372632F636F72652F6D656D47
:104CA000702E63006D656D705F6D616C6C6F633A43
:104CB000206D656D702070726F7065726C79206107
:104CC0006C69676E65640000417373657274696F27
:104CD0006E2022257322206661696C6564206174F0
:104CE000206C696E6520256420696E2025730A009A
:104CF00070B50A4E0546002404EB440006EBC000E4
:104D0000017D29B18068A84202D1204600F02CF92B
:104D1000641CE4B20A2CEFD370BD000054AF002035
:104D20002DE9F74F80460A2084B000240290074600
:104D30000190A346A246A14600904C4904EB4400D2
:104D400001EBC0060390357D0A2F18D0002D24D02A
:104D5000012D08D0022D06D245A340F2251252A102
:104D600061A0FDF767FEB8F1000F0CD0D8F8000085
:104D70007168884207D160B207B0BDE8F08F002D9E
:104D8000E6D167B209E0012D15D0022D05D3708A56
:104D9000484502D361B281460191641CE4B20A2CF9
:104DA000CBD3059881074FF0FF30E5D40A2F15D0FB
:104DB00017DAFCB23AE02D48039950F83100002888
:104DC000708A05D05845E8D361B283460091E4E784
:104DD0005045E2D361B282460291DEE70599C907E8
:104DE000CAD001990A290EDACCB2204804EB44015A
:104DF00050F8310070B11EA340F26F1244A13AA0E6
:104E0000FDF718FE06E002990A2902DB00990A293B
:104E1000B2DACCB20A2C06D315A340F2811242A119
:104E200031A0FDF707FE204600F09EF80A2C06D3BD
:104E30000FA340F285123CA12BA0FDF7FBFD0B4810
:104E400004EB440100EBC105287D30B108A34FF409
:104E5000C3723AA124A0FDF7EDFDB8F1000F02D016
:104E6000D8F8000068600020688284E754AF002012
:104E70002E2E2F4D6964646C6577617265732F54B3
:104E8000686972645F50617274792F4C7749502F52
:104E90007372632F636F72652F697076342F657438
:104EA000686172702E6300007374617465203D3D0B
:104EB000204554484152505F53544154455F50453A
:104EC0004E44494E47207C7C207374617465203EBB
:104ED0003D204554484152505F53544154455F531F
:104EE0005441424C45000000417373657274696F10
:104EF0006E2022257322206661696C6564206174CE
:104F0000206C696E6520256420696E2025730A0077
:104F10006172705F7461626C655B695D2E71203DCA
:104F20003D204E554C4C000069203C204152505FC2
:104F30005441424C455F53495A4500006172705FCD
:104F40007461626C655B695D2E7374617465203D8C
:104F50003D204554484152505F53544154455F45AC
:104F60004D5054590000000070B5074D00EB40044F
:104F7000002655F8340018B103F02AFA45F83460D9
:104F800005EBC400067570BD54AF00202DE9F04359
:104F900085B00D00074609D07C684FF480782088E2
:104FA000404544D12079062841D109E022A34FF49D
:104FB00022722FA132A0FDF73DFD05B0BDE8F083C0
:104FC0006079042833D16088082830D1D4F80E00E5
:104FD0000490A169686818B1814201D1012600E0FE
:104FE00000260EB1012300E0022304F108029146DD
:104FF00004A9284600F0A2FBE088404503D0B0F5A4
:10500000007F14D10FE096B1022204ABCDE9023249
:10501000291DCDE9001905F1290319464A462846FC
:1050200000F08EFA03E004A92846FDF729FE384671
:1050300003F0CEF9C1E700002E2E2F4D6964646C99
:105040006577617265732F54686972645F5061722D
:1050500074792F4C7749502F7372632F636F726589
:105060002F697076342F6574686172702E6300004A
:105070006E6574696620213D204E554C4C00000041
:10508000417373657274696F6E20222573222066E6
:1050900061696C6564206174206C696E65202564AB
:1050A00020696E2025730A00FEB514460E460500E1
:1050B00006D141A340F21B324DA151A0FDF7BAFC2D
:1050C00036B93DA34FF4477257A14DA0FDF7B2FC8E
:1050D00034B939A340F21D3256A149A0FDF7AAFC0C
:1050E0002946206800F072FE08B1564B39E020686E
:1050F000C0F303110E291FD0A9686B6800EA0102F2
:105100000B409A4208D080B2A0F57E41A93903D065
:10511000E86880B305F10C044B4B4C4A187800EB5F
:10512000400102EBC1010F7D022F28D32768496897
:105130008F4224D1024630E001208DF80400002087
:105140008DF805005E208DF80600607801AB00F058
:105150007F008DF80700A0788DF80800E0788DF8C2
:1051600009004FF40060009005F1290231462846FD
:1051700000F0C2FBFEBDFFE76FF00300FAE700217D
:1051800001EB410002EBC000077D022F0AD3276824
:105190004068874206D1CAB21A703146284600F0EC
:1051A00057F8E7E7491C49B20A29E9DB32462146AC
:1051B000284600F0D5F8DDE72E2E2F4D6964646C8B
:1051C0006577617265732F54686972645F506172AC
:1051D00074792F4C7749502F7372632F636F726508
:1051E0002F697076342F6574686172702E630000C9
:1051F0006E6574696620213D204E554C4C000000C0
:10520000417373657274696F6E2022257322206664
:1052100061696C6564206174206C696E6520256429
:1052200020696E2025730A007120213D204E554CC7
:105230004C00000069706164647220213D204E556D
:105240004C4C0000BCE100086801002054AF002075
:105250002DE9F8430646154688461C4802EB4501F1
:1052600000EBC104207D022806D219A34FF43B7243
:1052700025A131A0FDF7DEFB144A05EB4501207D99
:1052800002EBC1050C35022813D1608A0327B0F563
:105290008E7F04D9211D304600F00AFA07E0B0F5F0
:1052A000877F06D32A46211D304600F007FA00B951
:1052B00027754FF4006000902B4606F12902414605
:1052C000304600F019FBBDE8F883000054AF002021
:1052D0002E2E2F4D6964646C6577617265732F544F
:1052E000686972645F50617274792F4C7749502FEE
:1052F0007372632F636F72652F697076342F6574D4
:10530000686172702E6300006172705F7461626C1C
:10531000655B6172705F6964785D2E73746174653A
:10532000203E3D204554484152505F53544154451E
:105330005F535441424C4500417373657274696F09
:105340006E2022257322206661696C656420617479
:10535000206C696E6520256420696E2025730A0023
:105360002DE9FC5F82462930019088460868164680
:105370004FF0FF374FF0000B514600F027FD00289B
:1053800028D1D8F80000C0F303110E2922D0B8F1BB
:10539000000F1FD000281DD0524601214046FFF7C4
:1053A000BFFC040018D43B4904EB440901EBC905D8
:1053B000287D002812D0012808D0022806D236A362
:1053C00040F2C73242A14CA0FDF734FBBBF1000F05
:1053D0000AD108E06FF00F00BDE8FC9F012028759E
:1053E000C5F808A000E036B94146504600F060F923
:1053F0000746002EF0D0287D264902280DD34848C4
:1054000005F10C03314604704FF4006000905046E3
:10541000019A00F071FA074639E08846012836D132
:10542000002534464FF47B7760892189884207D173
:10543000206828B118A33A463AA12FA0FDF7FAFA3E
:10544000207B012803D12468002CEDD175B121897E
:105450000022022002F064FB050016D0314602F063
:1054600033FE40B1284602F0B3FF0EE03546304629
:1054700003F016FA4DB158F83900444608B102F06D
:10548000A7FF44F83950002701E04FF0FF373846B6
:10549000A2E7000054AF00202E2E2F4D6964646CEB
:1054A0006577617265732F54686972645F506172C9
:1054B00074792F4C7749502F7372632F636F726525
:1054C0002F697076342F6574686172702E630000E6
:1054D0006172705F7461626C655B695D2E7374618B
:1054E0007465203D3D2050454E44494E47206F7223
:1054F00020535441424C4500417373657274696F87
:105500006E2022257322206661696C6564206174B7
:10551000206C696E6520256420696E2025730A0061
:10552000680100206E6F207061636B657420717577
:105530006575657320616C6C6F7765642100000090
:105540002DE9FF4F81B09846DDE90FA9DDF838B0AD
:1055500006004FF0000706D12BA34FF48B6238A151
:105560003BA0FDF767FA00221C21022002F0D8FAC6
:10557000050046D068891C2806D223A340F2634266
:105580003DA133A0FDF756FA6C68119801F09CFC20
:10559000E08096F82800062806D01BA340F26A4255
:1055A00042492BA0FDF746FAD8F80010A160B8F8E0
:1055B0000400A081DAF80010C4F81210BAF8040050
:1055C000E082DBF80000C4F80E00D9F80000A0610A
:1055D0004FF4807020800820608006202071042015
:1055E000607140F60600DDE902230090294630464E
:1055F00000F082F9284602F0EBFE384605B0BDE81F
:10560000F08F4FF0FF30F9E72E2E2F4D6964646C58
:105610006577617265732F54686972645F50617257
:1056200074792F4C7749502F7372632F636F7265B3
:105630002F697076342F6574686172702E63000074
:105640006E6574696620213D204E554C4C0000006B
:10565000417373657274696F6E2022257322206610
:1056600061696C6564206174206C696E65202564D5
:1056700020696E2025730A00636865636B20746877
:10568000617420666972737420706275662063614C
:105690006E20686F6C642073747275637420657417
:1056A000686172705F68647200000000C0E4000806
:1056B000014A00F003B80000BCE100087FB5064DC8
:1056C000031D0124CDE90035CDE902142533194627
:1056D000FFF736FF04B070BDC2E1000870B5164D8B
:1056E000002404EB440005EBC002117DF1B1508AA7
:1056F000401C80B25082B0F5967F0AD2012906D0B4
:1057000003290AD004290AD001290BD00EE005286C
:1057100008D32046FFF728FC08E0042000E0022020
:10572000107503E0111D9068FFF7C2FF641CE4B21E
:105730000A2CD6D370BD000054AF0020F8B5044643
:1057400090F828001F4615460E46062806D020A3CE
:1057500040F2AB122CA135A0FDF76CF99EB3306876
:1057600088B3214600F032FB68BB3078C0F30310E9
:105770000E2829D0224639463046FFF7D1FA0028B4
:1057800020DB344A00EB400102EBC1000223037529
:1057900084602B68C360AB8803820023438252F885
:1057A000316076B142F831304FF4006000902B4602
:1057B00004F129023146204600F09EF8304602F0FE
:1057C00007FE0020F8BDFFE76FF00F00FAE70000CA
:1057D0002E2E2F4D6964646C6577617265732F544A
:1057E000686972645F50617274792F4C7749502FE9
:1057F0007372632F636F72652F697076342F6574CF
:10580000686172702E6300006E657469662D3E6873
:1058100077616464725F6C656E203D3D204554483D
:105820005F4857414444525F4C454E004173736595
:105830007274696F6E2022257322206661696C651F
:1058400064206174206C696E6520256420696E2077
:1058500025730A0054AF002070B5044640890D46F8
:105860000E283CD9606801788689CA0714D00129BE
:1058700005D006221F49FAF772FD48B10CE04178C5
:1058800051B980785E2807D1607B40F0100002E0BB
:10589000607B40F0080060736FF00D01082E03D0AC
:1058A000B6F5C16F1BD10FE095F82F00000716D594
:1058B00060890E2813DB204602F05EFE78B9294687
:1058C000204600F0C7FB12E095F82F00000706D530
:1058D00060890E2803DB204602F04EFE18B12046F8
:1058E00002F076FD03E029462046FFF74FFB00203B
:1058F00070BD0000BCE100082DE9F04104461F46E0
:1059000090460E46069801F0DFFA05460E21304615
:1059100002F032FE18B16FF00100BDE8F08170684E
:10592000858139680160B9888180D8F80020C0F885
:105930000620B8F80410418194F82800062806D003
:1059400006A340F22B1213A11FA0FDF773F83146F6
:105950002046A269BDE8F041104700002E2E2F4DD1
:105960006964646C6577617265732F5468697264E9
:105970005F50617274792F4C7749502F7372632F87
:105980006E657469662F65746865726E65742E63E2
:10599000000000006E657469662D3E68776164647E
:1059A000725F6C656E206D757374206265203620A1
:1059B000666F722065746865726E65745F6F75746A
:1059C0007075742100000000417373657274696F13
:1059D0006E2022257322206661696C6564206174E3
:1059E000206C696E6520256420696E2025730A008D
:1059F00010B5040006D10BA340F21E220EA112A086
:105A0000FDF718F8732084F83000742084F8310012
:105A1000174860611748A061204601F013F9002083
:105A200010BD00002E2E2F5372632F6574686572AF
:105A30006E657469662E63006E6574696620213D2B
:105A4000204E554C4C000000417373657274696FB1
:105A50006E2022257322206661696C656420617462
:105A6000206C696E6520256420696E2025730A000C
:105A7000A95000081D6E00080B4E05464FF0FF3779
:105A80003946306802F002F80028F9D1284601F0C2
:105A900067F90400F4D02A69294690470028F5D018
:105AA000204602F095FCF1E71800002038B50446C6
:105AB0008DF8000069460320ABBE204638BD0A467B
:105AC000032100F0F3B800002DE9FE4F434A0546DC
:105AD0008A46D2F8088098F800000007840E142C3B
